:1000000075500275516012000B80FEC000C001A83F
:1000100050A951120020A74F09D8F8D001D00022D2
:10002000C000120038E54EC454F0F8120038E54E16
:10003000540F48F54FD00022C001120040D00122D9
:100040007590F0754F0A12006B75900FA990754F5F
:100050000212006BE9C4440FF590754F0A12006B51
:1000600075900FE590B40FD8894E22C000C001C032
:1000700002E54F75F00AA4F87AC879FFD9FEDAFADA
:09008000D8F6D002D001D0002214
:00000001FF
