:100000000200D4C000C001C002E54F75F00AA4F898
:100010007AC879FFD9FEDAFAD8F6D002D001D0003A
:1000200022C0007590FF754F0A12000375900FA84B
:1000300090754F02120003E8C4440FF590754F0A03
:1000400012000375900FE590B40FD8884ED00022AF
:10005000C000120021E54EC454F0F8120021E54E14
:10006000540F4200884FD00022C000C001A850A900
:1000700051120050A74F09D8F8D001D00022C0007B
:10008000C001C002AA50A851A9521AE60866F70991
:10009000DAF9E6A85166F7D002D001D00022C000FC
:1000A000C001C002C003E550A95175900FA890AAE5
:1000B00090C39840F1EA29F919E7F590C4FB754F10
:1000C000041200038B9012000380DBD003D002D017
:1000D00001D000227581CF755002755160754F00B7
:1000E00012006975500275516075527012007E756C
:0A00F000500275517012009E80FE50
:00000001FF
