:100E4E00020C01F4020E0000020801F4021C000064
:0A0E5E00020A0008011A00011B003F
:050EF800D285D2862224
:050EFD00C285C286223F
:090ED400D285D286C285C28622B5
:090EDD00C286C285D286D28522AC
:090EE600C285D286C286D28522A3
:090EEF00D285D286C286D285228A
:050D9900120EFD7FA613
:100D9E00E4FEEF20E704C2858002D285D286C286A9
:100DAE00EF25E0FF0EBE08EAD285D286A285E43397
:030DBE00FFC286EB
:010DC100220F
:080DE800120DF08F18120EE647
:100DF000E4FFFED286308503430701EEC39407501B
:0B0E000004EF25E0FFC2860EBE08E8EC
:010E0B0022C4
:060E7E00C39FFFE49EFE8D
:0D0E8400C3EE64809480400122E4FEFF2252
:100DC200120EF8120D997F31120D9E7F01120D9EA7
:100DD200120EDD120D997F2D120D9E7F08120D9EAF
:060DE200120EDD020EF806
:100915004380015380EF7590FFE590540F751C00DF
:10092500F51D120DC2120CB5120C62120BE0120E5F
:1009350069E50D240CFFE50C34FEFE120EB37C00B8
:100945007D0F120A317405120E7EEF2401FFE43E7D
:10095500FED3E51B9FEE6480F874809840D3E4F5E0
:100965001B120D997FB2120D9E120ED47FA7120D88
:100975009E120DE88F19EFFE7C00E42518F50DECAD
:100985003EF50C120EE6120DE88F19120EEF120E3F
:10099500DDE519FEE42518F50FEC3EF50E74F4259A
:1009A5000DF50D7401350CF50CAC10AD11FEAF0D48
:1009B500120A1F8E088F09D3E50D94FEE50C64809D
:1009C500948140047F0180027F00C3E5119406E510
:1009D500106480948050047E0180027E00EE5F608A
:1009E50006120D63020936D3E5119400E510648003
:1009F500948040047F0180027F00C3E50D94EAE501
:100A05000C6480948150047E0180027E00EE5F704C
:0A0A150003020936120D2D02093606
:100C6200E4F510F511F512F513851027851128E525
:100C7200112402FFE43510FEC3E5289FEE6480F8DC
:100C8200E527648098502BE4F529F52AAF28AD2A90
:100C92007BFF120E2E052AE52A70020529C3941045
:100CA200E5296480948040E40528E52870C1052781
:020CB20080BD03
:010CB400221D
:100BE000AE08AF097C007D07120A318C148D15C345
:100BF000E4951DFFE4951CFE7C007D05120A1FEFA5
:100C00002470F517E43EF516851427851528E5159B
:100C10002402FFE43514FEC3E5289FEE6480F8E566
:100C200027648098503B85162985172AE5172410DC
:100C3000FFE43516FEC3E52A9FEE6480F8E52964DB
:100C400080985013AF28AD2A7BFF120E2E052AE59F
:100C50002A70D9052980D50528E52870B105278097
:010C6000ADE6
:010C61002270
:100ABC0085141E85151FE5152402FFE43514FEC3AD
:100ACC00E51F9FEE6480F8E51E6480985071E51771
:100ADC002410FFE43516FEC36480948040047D012D
:100AEC0080027D00C3EF9480EE6480948050047F7C
:100AFC000180027F00EF5D600CAF1FE5172410FD35
:100B0C00E4FB120E2EC3E5166480948040047F0132
:100B1C0080027F00C3E5179480E5166480948050B2
:100B2C00047E0180027E00EE5F6009AF1FAD177B73
:100B3C00FF120E2E051FE51F7002051E020AC2E5EC
:070B4C0017151770021516C2
:010B5300227F
:100D2D00E511151170021510E4F527F528AF11AD79
:100D3D00287BFF120E2EE5112402FFAD28E4FB12D5
:100D4D000E2E0528E52870020527C39410E52764AB
:050D5D0080948040D8E5
:010D6200226E
:100D6300E4F527F528AF11AD28E4FB120E2EE511AB
:100D73002402FFAD287BFF120E2E0528E528700202
:100D83000527C39410E5276480948040D80511E5B6
:050D93001170020510C3
:010D98002238
:100CB5007F3F120E0CE4F527F528E4F529F52AAF58
:100CC50028AD2AE4FB120E2E052AE52A7002052915
:100CD500C39480E5296480948040E40528E5287064
:0E0CE500020527C39408E5276480948040CC64
:010CF30022DE
:040E2E008D2B8B2C51
:100E3200E52B547F752D00F52E120ECAAF2B7E00C6
:0C0E4200120EA4AD2EAC2DAF2C020CF44F
:0A0ECA00EF44B8F5A0AFA0020E0C33
:0F0EA40053073F7E00EF4440F5A0AFA0020E0CB5
:100E0C008F2F120EBF852FA0C280C281D2B1D2B05B
:100E1C00D2827F017E00120E91C2827F017E00027F
:020E2C000E9125
:100CF4008F2F8C308D31120EBF852FA0D280C281F0
:100D0400D282C3E5319440E530648094805006D2A9
:100D1400B0C2B18004C2B0D2B17F017E00120E9184
:090D2400C2827F017E00020E91E3
:100E9100D3EF9400EE648094804007EF1F70F11E41
:030EA10080EE22BE
:0B0EBF00C280C281C282C2B0C2B12258
:03000B00020800E8
:10080000C0E0C0F0C083C082C0D075D000C000C0BE
:1008100001C002C003C004C005C006C007758CC07B
:10082000758A007590FFE590540F751C00F51DE565
:10083000172410E43516C36480948040047F01803F
:10084000027F00C3E5179410E5166480948050047D
:100850007E0180027E00EE5FFFE5152402FDE43597
:1008600014FCC3E5119DEC6480F8E5106480985099
:10087000047E0180027E00EE5FFFE51524FEFDE5AB
:100880001434FFFCD3E5119DEC6480F8E51064801E
:100890009840047E0180027E00EE5F705DAE0EAF78
:1008A0000F7C007D0A120A317408120E7EC3E51A0D
:1008B0009FEE6480F8748098403C751A00E5172418
:1008C00010FFE435164F702B120ABCC3E4951DFFD0
:1008D000E4951CFE7C007D05120A1FEF247FF517AE
:1008E000E43EF516AE08AF097D07120A318C148D6F
:1008F000158003120ABC051A051BD007D006D005C7
:10090000D004D003D002D001D000D0D0D082D08388
:05091000D0F0D0E03240
:100E6900758CC0E4F58AE58954F04401F589D2AF5F
:050E7900D2A9D28C2279
:03000000020B549C
:0C0B5400787FE4F6D8FD758131020B9B20
:100A1F00EF8DF0A4A8F0CF8CF0A428CE8DF0A42EEB
:020A2F00FE22A5
:100A3100C2D5EC30E709B2D5E4C39DFDE49CFCEEE0
:100A410030E715B2D5E4C39FFFE49EFE120A67C3E7
:100A5100E49DFDE49CFC8003120A6730D507C3E4E2
:060A61009FFFE49EFE224F
:0C0EB300EE30E707C3E49FFFE49EFE2240
:100B6000020915E493A3F8E493A34003F68001F28D
:100B700008DFF48029E493A3F85407240CC8C33396
:100B8000C4540F4420C8834004F456800146F6DF65
:100B9000E4800B0102040810204080900E4EE47E99
:100BA000019360BCA3FF543F30E509541FFEE4935A
:100BB000A360010ECF54C025E060A840B8E493A321
:100BC000FAE493A3F8E493A3C8C582C8CAC583CA4C
:100BD000F0A3C8C582C8CAC583CADFE9DEE780BE04
:010E68000089
:100A6700BC000BBE0029EF8DF084FFADF022E4CC73
:100A7700F875F008EF2FFFEE33FEEC33FCEE9DEC3C
:100A8700984005FCEE9DFE0FD5F0E9E4CEFD22ED82
:100A9700F8F5F0EE8420D21CFEADF075F008EF2FCC
:100AA700FFED33FD4007985006D5F0F222C398FDBD
:050AB7000FD5F0EA225A
:00000001FF
