:08000000020300E590540F22F9
:08000B000E758CF0758A5F325E
:10030000E58B75F002A4F55085F0511203A27589B2
:1003100051D2AFD2A97C21758CF0758A5FD28C7EC8
:1003200000120365758D00758B00D28E75900FE5F8
:1003300090120003F8C3740F98F9AA00AB01BA0039
:10034000028012EAD294D2B0B506F8BB00077E0054
:10035000DCE8020300C294C2B0BE1EF97E00DCDA03
:1003600002030080FE748071DF910990020071FF2A
:10037000910974C071DF9109E812039612038D127E
:10038000038DE551120396E55012039622910974EC
:100390002071EE91092212020871EEE5F071EE91E2
:1003A000092275A038C280C281D2829109C282918D
:1003B0000975A00CC280C281D2829109C2829109C2
:1003C00075A001C280C281D2829109C28291097551
:1003D000A006C280C281D2829109C282910922F50F
:1003E000A0C280C281D2829109C282910922F5A065
:1003F000D280C281D2829109C2829109910922E4FC
:1004000093600571EEA380F722C000C001780179E6
:0A041000FFD9FED8FAD001D0002277
:10020000494E202052504D00C002C003FA540FFB4B
:10021000940A5007EB2430F5F08005EB2437F5F015
:10022000EA54F0C4FB940A5008EB2430D003D00207
:0902300022EB2437D003D0022296
:00000001FF
