:030000000200ED0E
:10000B000F758CF0758A603275A038C280C281D2B0
:10001B0082117AC282117A75A00CC280C281D282FF
:10002B00117AC282117A75A001C280C281D282116B
:10003B007AC282117A75A006C280C281D282117AED
:10004B00C282117A22F5A0C280C281D282117AC2F9
:10005B0082117A22F5A0D280C281D282117AC28219
:10006B00117A117A22E4936005115FA380F722784D
:10007B000179FFD9FED8FA22FA540FFB94095007E5
:10008B00EB2430F5F08005EB2437F5F0EA54F0C49F
:10009B00FB94095004EB243022EB243722ADF0FC07
:1000AB0074C01150117AE590540FC3F550740F952D
:1000BB005075F002A475F00A84C0F01183E5F011BD
:1000CB005FD0F0E5F01183E5F0115F74C3115011AF
:1000DB007AED1183E5F0115FEC1183115FE5F011FF
:1000EB005F2212001375900F75895175A8827401E8
:1000FB001150117A74021150117A74801150117AC7
:10010B009003001170117A311680FE7E00758D0000
:0F011B00758B00E59075900F540F7F00758CF079
:10012A00758A60D28CD28EB50702D2B0BF0FF80E94
:10013A00C2B0BE211C858BF07402A4C0E0C0F0E5F9
:10014A008B54F0FCE5904CF590D0F0D0E011A880EB
:04015A00BB80C32281
:07030000494E2052504D0050
:00000001FF
