:03000000020200F9
:1002000075A00075900051BD51BD513851BD51BD13
:1002100051BD78FFE8F4F6D8FB7581CF7136754F84
:100220000A12029F75A00075900051BD51BD513852
:1002300051BD51BD51BD80E475A038C280C281D28C
:100240008251BDC28251BD75A00CC280C281D282D2
:1002500051BDC28251BD75A001C280C281D28251FE
:10026000BDC28251BD75A006C280C281D28251BD7D
:10027000C28251BD22F5A0C280C281D28251BDC2CC
:100280008251BD22F5A0D280C281D28251BDC282EC
:1002900051BD51BD22E49360055184A380F722C073
:1002A00000C001C002E54F75F00AA4F87AC879FFD2
:1002B000D9FEDAFAD8F6D002D001D00022C000C0B0
:1002C00001780179FFD9FED8FAD001D00022C0020E
:1002D000C003FA540FFB940A5007EB2430F5F0806A
:1002E00005EB2437F5F0EA54F0C4FB940A5008EB10
:1002F0002430D003D00222EB2437D003D00222C016
:1003000001120307D001227590F0754F0A12029F67
:1003100075900FA990754F0212029FE9C4440FF522
:01032000904C
:10032100754F0412029F75900FE59089F0B5F0D6D4
:10033100E9C454F0221202FFF87C0275A000759006
:100341000051BD51BD513851BD51BD51BD74805198
:100351007551BD7D0412037BE612038808DDF67436
:10036100C0517551BD7D0412037BE612038808DD7F
:10037100F6754F0A12029FDCC222C0E051BD742003
:10038100518451BDD0E022C0E01202CE5184E5F08B
:07039100518451BDD0E022B0
:00000001FF
