:0508B500D280D2812277
:0508BA00C280C2812292
:09089100D280D281C280C2812212
:09089A00C281C280D281D2802209
:0908A300C280D281C281D2802200
:0908AC00D280D281C281D28022E7
:10084500E4FEEF20E704C2808002D280D281C2811B
:10085500EF25E0FF0EBE08EAD280D281A280E43304
:03086500FFC2814E
:01086800226D
:10086900E4FFFED281308003430701EEC3940750B1
:0B08790004EF25E0FFC2810EBE08E87E
:010884002251
:10080000E4F5901208B51208BA7F20120845EF24CB
:10081000FF92007F07120845EF24FF92007F10121D
:100820000845EF24FF920012089A7590201208B52F
:100830001208BA7F331208451208698F901208AC6B
:0508400012089A80E897
:030000000208856E
:0C088500787FE4F6D8FD758120020800A1
:00000001FF
