:100000007581CF75500675516012003875500675B0
:1000100051701200387550067551601200B275505B
:100020000675516075527012004A75500675517010
:10003000754F0212007D80FEC000C001A850A9517A
:10004000770009D8FBD001D00022C000C001C00257
:10005000AA50A851A952E687F0B5F00280D8500FF7
:100060000809DAFCAA50E41819E6F7DAF980C7E4BF
:10007000E6F70809DAF9D002D001D00022C000C0AA
:1000800001A850A951E7C4F59012009409D8F6D000
:1000900001D00022C000C001C002E54F75F00AA4E3
:1000A000F87AC879FFD9FEDAFAD8F6D002D001D0B2
:1000B0000022C000C001C002C003A850A9517A00AC
:1000C0007B000BEB8BF0A42AFAF709D8F5D003D00C
:0600D00002D001D0002265
:00000001FF
