:03000000020200F9
:02000B000832B9
:1002000012020D12023812025580F580FE75A00010
:100210007590005194519471065194519451947475
:1002200080714351949007007163519474C271437B
:100230005194900711716322758901758A00758C3C
:1002400000D2AFD2A975901F7800D28C3090FD7586
:10025000900FC28C2275A000759001519451947139
:100260000651945194519474817143519490071E96
:100270007163519474C07143519490072C7163E879
:100280001202C7E58C1202C7E58A1202C7754F0A2F
:100290001202A922C0D0C000C002780179FFD9FEA5
:1002A000D8FAD002D000D0D022C000C001C002E5F0
:1002B0004F75F00AA4F87AC879FFD9FEDAFAD8F6B1
:1002C000D002D001D00022C0D0C002C003FA54F046
:1002D000C4FB940A5008EB24301203528006EB242E
:1002E00037120352EA540FFB940A500DEB243012DC
:1002F0000352D003D002D0D022EB2437120352D0C5
:1003000003D002D0D02275A038C280C281D28251DF
:1003100094C282519475A00CC280C281D282519441
:10032000C282519475A001C280C281D2825194C20E
:0603300082519475A00645
:10033600C280C281D2825194C282519422F5A0C257
:1003460080C281D2825194C282519422F5A0D28079
:10035600C281D2825194C2825194519422E4936014
:07036600057152A380F7228C
:10070000505245535320535749544348205357316F
:10071000004153204C454420474C4F57530052450D
:10072000414354494F4E2054494D4500434F554E87
:0607300054204953200093
:00000001FF
