:03000000020941B1
:0C094100787FE4F6D8FD75812D0209884E
:090B1000566F6C746167653A00D0
:100A3B00C100C101C102020F00000214000002112B
:0E0A4B000000010D000116000417000000005D
:1008A400E4F5B0F5A05390EF5380F0120A91120AC8
:1008B40076120AC5C29475C5013000FDC20075C523
:1008C400803000FDE5085403F50EC200E4F5C530A0
:1008D40000FD850813C200D294E50EFE7C00E425D9
:1008E40013F510EC3EF50F7BFF7A0B79107D08129F
:1008F40009CDE4F525F526850F27851028FBFAAEEA
:1009040027AF287C007D0A120819ED2430FF7421DA
:100914002516F8A607AE27AF287C007D0A12081911
:100924008E278F280BBB00010AEB64044A70D07B2E
:0D093400007A0079217D041209CD0208B877
:03004B00020A5A4C
:100A5A00C0E0C0D075D000C007AFC4EF24807005D5
:0C0A6A0085C508D200D007D0D0D0E03203
:03000B00020B07DE
:090B0700758C3C758AB0050D32B5
:100A9100D29443C32043C30143C31053C3F743C399
:0A0AA1000443B104D2AF43C3402266
:100AC500758C3C758AB0E58954F04401F589D2A945
:060AD500D28CE4F50D22B5
:100A76007F647E00120A017F38120ADB7F0E120A9B
:0B0A8600DB7F01120ADB7F80020ADB2D
:100ADB008F29120AAB8529A0C2801209F9C2827F25
:060AEB00057E00020A0175
:100AF1008F2D120AAB852DA0D2801209F9C2827FF7
:060B0100057E00020A015E
:1009CD008B298A2A892B8D2CE52CD39400401CABC6
:1009DD0029AA2AA92B120800FF120AF17401252B4E
:0C09ED00F52BE4352AF52A152C80DD22BC
:100AAB0075A0FFC280D281C2821209FDD28230A70B
:0A0ABB0006C282D28280F7C28222B6
:0809F900C281D2827F057E005D
:100A0100D3EF9400EE64809480400DE4FD0DBD05AC
:080A1100FCEF1F70EB1E80E8F2
:010A190022BA
:100A1A00D3EF9400EE648094804015E4FCFD0DBD94
:100A2A0000010CBC01F8BD7EF5EF1F70E31E80E0EB
:010A3A002299
:10094D000208A4E493A3F8E493A34003F68001F214
:10095D0008DFF48029E493A3F85407240CC8C333AB
:10096D00C4540F4420C8834004F456800146F6DF7A
:10097D00E4800B0102040810204080900A3BE47EC5
:10098D00019360BCA3FF543F30E509541FFEE4936F
:10099D00A360010ECF54C025E060A840B8E493A336
:1009AD00FAE493A3F8E493A3C8C582C8CAC583CA61
:1009BD00F0A3C8C582C8CAC583CADFE9DEE780BE19
:010A5900009C
:10080000BB010689828A83E0225002E722BBFE02F6
:09081000E32289828A83E4932229
:10081900C2D5EC30E709B2D5E4C39DFDE49CFCEEFA
:1008290030E715B2D5E4C39FFFE49EFE12084FC31B
:10083900E49DFDE49CFC800312084F30D507C3E416
:060849009FFFE49EFE2269
:10084F00BC000BBE0029EF8DF084FFADF022E4CC8D
:10085F00F875F008EF2FFFEE33FEEC33FCEE9DEC56
:10086F00984005FCEE9DFE0FD5F0E9E4CEFD22ED9C
:10087F00F8F5F0EE8420D21CFEADF075F008EF2FE6
:10088F00FFED33FD4007985006D5F0F222C398FDD7
:05089F000FD5F0EA2274
:00000001FF
