:03000000020B1FD1
:0C0B1F00787FE4F6D8FD75814F020B666C
:0E0D1800576569676874203D200020676D00F4
:100C0600C100C101C102022E0000024700000244D9
:100C16000000012600014900022C0000044C0000DF
:020C26000000CC
:100A1100E4F5B0F5A05390EF5380F0120CA2120C44
:100A210087120CD6C29475C5013000FDC20075C590
:100A3100803000FDE5215403F527C200E4F5C530FF
:100A410000FD852146C200D294E527FE7C00E42505
:100A510046F52FEC3EF52EE526B40AC8E4F52CF553
:100A61002DF54AF54BE54B25E02430F8E6FE08E686
:100A7100252DF52DEE352CF52C054BE54B7002059A
:100A81004A640A454A70DEAE2CAF2D7C007D0A1205
:100A910009788E2C8F2DAC2CAD2DEC1208A57B5432
:100AA1007A527967783E1208031208DE8E2C8F2D58
:100AB100E4F528F529F52AF52BF54A754B03AE2CFB
:100AC100AF2D7C007D0A120978ED2430FF742825B2
:100AD1004BF8A607AE2CAF2D7C007D0A1209788E4B
:100AE1002C8F2DE54B154B7002154AE54BB4FFCE0B
:100AF100E54AB4FFC97BFF7A0D79187D09120BDA3B
:100B01007B007A0079287D04120BDA7BFF7A0D795C
:0E0B1100227D03120BDA7F80120CEC020A2503
:03004B00020C6B39
:100C6B00C0E0C0D075D000C007AFC4EF24807005C2
:0C0C7B0085C521D200D007D0D0D0E032D7
:03000B00020BAB3A
:100BAB00C0E0C0D075D000C000758C3C758AB0E534
:100BBB0026640A6010E52625E02430F8A62E08A648
:0F0BCB002F05268003752600D000D0D0D0E03251
:100CA200D29443C32043C30143C31053C3F743C386
:0A0CB2000443B104D2AF43C3402253
:100CD600758C3C758AB0E58954F04401F589D2A932
:060CE600D28CE4F5262289
:100C87007F647E00120C317F38120CEC7F0E120C41
:0B0C9700EC7F01120CEC7F80020CECE3
:100CEC008F08120CBC8508A0C280120C29C2827F0E
:060CFC00057E00020C3130
:100D02008F0C120CBC850CA0D280120C29C2827FDF
:060D1200057E00020C3119
:100BDA008B088A09890A8D0BE50BD39400401CAB5C
:100BEA0008AA09A90A12095FFF120D027401250A4F
:0C0BFA00F50AE43509F509150B80DD2231
:100CBC0075A0FFC280D281C282120C2DD28230A7C5
:0A0CCC0006C282D28280F7C28222A3
:080C2900C281D2827F057E002A
:100C3100D3EF9400EE64809480400DE4FD0DBD057A
:080C4100FCEF1F70EB1E80E8C0
:010C49002288
:100C4A00D3EF9400EE648094804015E4FCFD0DBD62
:100C5A0000010CBC01F8BD7EF5EF1F70E31E80E0B9
:010C6A002267
:10080000020954EC5D046005E85904700302094ACA
:10081000120915580460F6EC4860F2EC7004FDFE15
:10082000FF22C860DB2481C85009C39860025006CB
:100830000209519850CAF582E9294B4A7005AB82EA
:1008400002094075F0007C1A7880C3EF9BEE9AEDA8
:1008500099400DC3EF9BFFEE9AFEED99FDE842F043
:10086000DC23ACF0D0E0FFD0E0FED0E0FDAB822096
:10087000E7101BEB60BAEC2CFCEF33FFEE33FEED20
:1008800033FD02092CE803F830E705C0F075F000ED
:10089000EF2FFFEE33FEED33FD40B830E7C280AA04
:1008A00075F020800E75F010800575F0087D007ED3
:1008B000007F003392D530D5031209AEEC334010DF
:1008C000EF33FFEE33FEED33FDEC33FCD5F0ED22DC
:0E08D000E5F0247EA2D513CC92E7CDCEFF2218
:1008DE00EDD2E7CD33EC3392D524814006E4FFFE12
:1008EE00FDFC22FCE4CFCECDCC24E0501174FF8071
:1008FE00EDC3CC13CCCD13CDCE13CECF13CF04700E
:07090E00F030D5DE0209AE56
:10091500E9D2E7C933E833F892D5EDD2E7CD33EC28
:0709250033FC5002B2D522A1
:10092C00EC30E7100FBF000C0EBE00080DBD00042C
:10093C000BEB6014A2D5EB13FCED92E7FD2274FFD8
:10094C00FCFDFEFF22E480F8A2D574FF13FC7D8031
:03095C00E480EF45
:100B2B00020A11E493A3F8E493A34003F68001F2C5
:100B3B0008DFF48029E493A3F85407240CC8C333CB
:100B4B00C4540F4420C8834004F456800146F6DF9A
:100B5B00E4800B0102040810204080900C06E47E18
:100B6B00019360BCA3FF543F30E509541FFEE4938F
:100B7B00A360010ECF54C025E060A840B8E493A356
:100B8B00FAE493A3F8E493A3C8C582C8CAC583CA81
:100B9B00F0A3C8C582C8CAC583CADFE9DEE780BE39
:010C280000CB
:10095F00BB010689828A83E0225002E722BBFE0296
:09096F00E32289828A83E49322C9
:10097800C2D5EC30E709B2D5E4C39DFDE49CFCEE9A
:1009880030E715B2D5E4C39FFFE49EFE1209BCC34D
:10099800E49DFDE49CFC80031209BC30D507C3E448
:0609A8009FFFE49EFE2209
:0E09AE00C3E49FFFE49EFEE49DFDE49CFC225A
:1009BC00BC000BBE0029EF8DF084FFADF022E4CC1F
:1009CC00F875F008EF2FFFEE33FEEC33FCEE9DECE8
:1009DC00984005FCEE9DFE0FD5F0E9E4CEFD22ED2E
:1009EC00F8F5F0EE8420D21CFEADF075F008EF2F78
:1009FC00FFED33FD4007985006D5F0F222C398FD69
:050A0C000FD5F0EA2205
:00000001FF
